{
    "_format": "hh-sol-artifact-1",
    "contractName": "DinanceFactory",
    "sourceName": "contracts/DinanceFactory.sol",
    "abi": [
        {
            "inputs": [
                {
                    "components": [
                        {
                            "internalType": "address",
                            "name": "tokenAddress",
                            "type": "address"
                        },
                        {
                            "internalType": "string",
                            "name": "name",
                            "type": "string"
                        },
                        {
                            "internalType": "string",
                            "name": "symbol",
                            "type": "string"
                        }
                    ],
                    "internalType": "struct DinanceFactory.TokenProperty[]",
                    "name": "_tokenPools",
                    "type": "tuple[]"
                }
            ],
            "stateMutability": "nonpayable",
            "type": "constructor"
        },
        {
            "anonymous": false,
            "inputs": [
                {
                    "indexed": false,
                    "internalType": "address",
                    "name": "_token",
                    "type": "address"
                },
                {
                    "indexed": false,
                    "internalType": "address",
                    "name": "pool",
                    "type": "address"
                },
                {
                    "indexed": false,
                    "internalType": "uint256",
                    "name": "poolLength",
                    "type": "uint256"
                }
            ],
            "name": "poolCreated",
            "type": "event"
        },
        {
            "inputs": [
                {
                    "internalType": "address",
                    "name": "",
                    "type": "address"
                }
            ],
            "name": "AToken",
            "outputs": [
                {
                    "internalType": "contract DinanceAToken",
                    "name": "",
                    "type": "address"
                }
            ],
            "stateMutability": "view",
            "type": "function"
        },
        {
            "inputs": [
                {
                    "internalType": "address",
                    "name": "",
                    "type": "address"
                }
            ],
            "name": "DinancePoolAddress",
            "outputs": [
                {
                    "internalType": "contract DinancePool",
                    "name": "",
                    "type": "address"
                }
            ],
            "stateMutability": "view",
            "type": "function"
        },
        {
            "inputs": [],
            "name": "DinancePoolContract",
            "outputs": [
                {
                    "internalType": "contract DinancePool",
                    "name": "",
                    "type": "address"
                }
            ],
            "stateMutability": "view",
            "type": "function"
        },
        {
            "inputs": [
                {
                    "internalType": "address",
                    "name": "_token",
                    "type": "address"
                }
            ],
            "name": "checkPool",
            "outputs": [
                {
                    "internalType": "bool",
                    "name": "",
                    "type": "bool"
                }
            ],
            "stateMutability": "nonpayable",
            "type": "function"
        },
        {
            "inputs": [],
            "name": "dinanceAToken",
            "outputs": [
                {
                    "internalType": "contract DinanceAToken",
                    "name": "",
                    "type": "address"
                }
            ],
            "stateMutability": "view",
            "type": "function"
        },
        {
            "inputs": [],
            "name": "poolExist",
            "outputs": [
                {
                    "internalType": "bool",
                    "name": "",
                    "type": "bool"
                }
            ],
            "stateMutability": "view",
            "type": "function"
        },
        {
            "inputs": [
                {
                    "internalType": "uint256",
                    "name": "",
                    "type": "uint256"
                }
            ],
            "name": "poolMarket",
            "outputs": [
                {
                    "internalType": "address",
                    "name": "",
                    "type": "address"
                }
            ],
            "stateMutability": "view",
            "type": "function"
        },
        {
            "inputs": [
                {
                    "internalType": "uint256",
                    "name": "",
                    "type": "uint256"
                }
            ],
            "name": "reserveTokens",
            "outputs": [
                {
                    "internalType": "address",
                    "name": "",
                    "type": "address"
                }
            ],
            "stateMutability": "view",
            "type": "function"
        },
        {
            "inputs": [],
            "name": "totalAmount",
            "outputs": [
                {
                    "internalType": "uint256",
                    "name": "",
                    "type": "uint256"
                }
            ],
            "stateMutability": "view",
            "type": "function"
        },
        {
            "inputs": [],
            "name": "totalSupply",
            "outputs": [
                {
                    "internalType": "uint256",
                    "name": "",
                    "type": "uint256"
                }
            ],
            "stateMutability": "nonpayable",
            "type": "function"
        }
    ],
    "bytecode": "0x60806040523480156200001157600080fd5b50604051620048ad380380620048ad833981810160405281019062000037919062000937565b60005b8151811015620005685760008282815181106200005c576200005b62000988565b5b6020026020010151600001519080600181540180825580915050600190039060005260206000200160009091909190916101000a81548173ffffffffffffffffffffffffffffffffffffffff021916908373ffffffffffffffffffffffffffffffffffffffff160217905550604051620000d69062000570565b604051809103906000f080158015620000f3573d6000803e3d6000fd5b50600260006101000a81548173ffffffffffffffffffffffffffffffffffffffff021916908373ffffffffffffffffffffffffffffffffffffffff160217905550600260009054906101000a900473ffffffffffffffffffffffffffffffffffffffff1673ffffffffffffffffffffffffffffffffffffffff1663c4d66de883838151811062000188576200018762000988565b5b6020026020010151600001516040518263ffffffff1660e01b8152600401620001b29190620009c8565b600060405180830381600087803b158015620001cd57600080fd5b505af1158015620001e2573d6000803e3d6000fd5b505050506001600260009054906101000a900473ffffffffffffffffffffffffffffffffffffffff169080600181540180825580915050600190039060005260206000200160009091909190916101000a81548173ffffffffffffffffffffffffffffffffffffffff021916908373ffffffffffffffffffffffffffffffffffffffff160217905550600260009054906101000a900473ffffffffffffffffffffffffffffffffffffffff1660046000848481518110620002a857620002a762000988565b5b60200260200101516000015173ffffffffffffffffffffffffffffffffffffffff1673ffffffffffffffffffffffffffffffffffffffff16815260200190815260200160002060006101000a81548173ffffffffffffffffffffffffffffffffffffffff021916908373ffffffffffffffffffffffffffffffffffffffff16021790555081818151811062000342576200034162000988565b5b60200260200101516000015182828151811062000364576200036362000988565b5b60200260200101516020015183838151811062000386576200038562000988565b5b602002602001015160400151604051620003a0906200057e565b620003ae9392919062000a42565b604051809103906000f080158015620003cb573d6000803e3d6000fd5b50600360006101000a81548173ffffffffffffffffffffffffffffffffffffffff021916908373ffffffffffffffffffffffffffffffffffffffff160217905550600360009054906101000a900473ffffffffffffffffffffffffffffffffffffffff166005600084848151811062000449576200044862000988565b5b60200260200101516000015173ffffffffffffffffffffffffffffffffffffffff1673ffffffffffffffffffffffffffffffffffffffff16815260200190815260200160002060006101000a81548173ffffffffffffffffffffffffffffffffffffffff021916908373ffffffffffffffffffffffffffffffffffffffff1602179055507f407eac4ec3d5da6bb83c52c3817e2b7e46268bb1e945cc2494b7c01e06d2beae82828151811062000504576200050362000988565b5b602002602001015160000151600260009054906101000a900473ffffffffffffffffffffffffffffffffffffffff166001805490506040516200054a9392919062000aa8565b60405180910390a180806200055f9062000b14565b9150506200003a565b505062000b61565b6115d3806200147883390190565b611e628062002a4b83390190565b6000604051905090565b600080fd5b600080fd5b600080fd5b6000601f19601f8301169050919050565b7f4e487b7100000000000000000000000000000000000000000000000000000000600052604160045260246000fd5b620005f082620005a5565b810181811067ffffffffffffffff82111715620006125762000611620005b6565b5b80604052505050565b6000620006276200058c565b9050620006358282620005e5565b919050565b600067ffffffffffffffff821115620006585762000657620005b6565b5b602082029050602081019050919050565b600080fd5b600080fd5b600080fd5b600073ffffffffffffffffffffffffffffffffffffffff82169050919050565b6000620006a58262000678565b9050919050565b620006b78162000698565b8114620006c357600080fd5b50565b600081519050620006d781620006ac565b92915050565b600080fd5b600067ffffffffffffffff8211156200070057620006ff620005b6565b5b6200070b82620005a5565b9050602081019050919050565b60005b83811015620007385780820151818401526020810190506200071b565b60008484015250505050565b60006200075b6200075584620006e2565b6200061b565b9050828152602081018484840111156200077a5762000779620006dd565b5b6200078784828562000718565b509392505050565b600082601f830112620007a757620007a6620005a0565b5b8151620007b984826020860162000744565b91505092915050565b600060608284031215620007db57620007da6200066e565b5b620007e760606200061b565b90506000620007f984828501620006c6565b600083015250602082015167ffffffffffffffff81111562000820576200081f62000673565b5b6200082e848285016200078f565b602083015250604082015167ffffffffffffffff81111562000855576200085462000673565b5b62000863848285016200078f565b60408301525092915050565b60006200088662000880846200063a565b6200061b565b90508083825260208201905060208402830185811115620008ac57620008ab62000669565b5b835b81811015620008fa57805167ffffffffffffffff811115620008d557620008d4620005a0565b5b808601620008e48982620007c2565b85526020850194505050602081019050620008ae565b5050509392505050565b600082601f8301126200091c576200091b620005a0565b5b81516200092e8482602086016200086f565b91505092915050565b60006020828403121562000950576200094f62000596565b5b600082015167ffffffffffffffff8111156200097157620009706200059b565b5b6200097f8482850162000904565b91505092915050565b7f4e487b7100000000000000000000000000000000000000000000000000000000600052603260045260246000fd5b620009c28162000698565b82525050565b6000602082019050620009df6000830184620009b7565b92915050565b600081519050919050565b600082825260208201905092915050565b600062000a0e82620009e5565b62000a1a8185620009f0565b935062000a2c81856020860162000718565b62000a3781620005a5565b840191505092915050565b600060608201905062000a596000830186620009b7565b818103602083015262000a6d818562000a01565b9050818103604083015262000a83818462000a01565b9050949350505050565b6000819050919050565b62000aa28162000a8d565b82525050565b600060608201905062000abf6000830186620009b7565b62000ace6020830185620009b7565b62000add604083018462000a97565b949350505050565b7f4e487b7100000000000000000000000000000000000000000000000000000000600052601160045260246000fd5b600062000b218262000a8d565b91507fffffffffffffffffffffffffffffffffffffffffffffffffffffffffffffffff820362000b565762000b5562000ae5565b5b600182019050919050565b6109078062000b716000396000f3fe608060405234801561001057600080fd5b506004361061009e5760003560e01c80636c3838fb116100665780636c3838fb1461015d5780636cf972c71461018d5780637ae556aa146101ab5780638dbfd9e5146101db578063d031370b146101f95761009e565b80630a9ff504146100a357806318160ddd146100c157806319c053f0146100df5780631a39d8ef1461010f57806330b9d2a71461012d575b600080fd5b6100ab610229565b6040516100b89190610601565b60405180910390f35b6100c961024f565b6040516100d69190610635565b60405180910390f35b6100f960048036038101906100f49190610681565b61038e565b60405161010691906106cf565b60405180910390f35b6101176103cd565b6040516101249190610635565b60405180910390f35b61014760048036038101906101429190610716565b6103d3565b604051610154919061075e565b60405180910390f35b61017760048036038101906101729190610716565b6104a4565b6040516101849190610601565b60405180910390f35b6101956104d7565b6040516101a2919061075e565b60405180910390f35b6101c560048036038101906101c09190610716565b6104ea565b6040516101d2919061079a565b60405180910390f35b6101e361051d565b6040516101f0919061079a565b60405180910390f35b610213600480360381019061020e9190610681565b610543565b60405161022091906106cf565b60405180910390f35b600260009054906101000a900473ffffffffffffffffffffffffffffffffffffffff1681565b600080600090505b6001805490508110156103855760008181548110610278576102776107b5565b5b9060005260206000200160009054906101000a900473ffffffffffffffffffffffffffffffffffffffff1673ffffffffffffffffffffffffffffffffffffffff166370a08231600183815481106102d2576102d16107b5565b5b9060005260206000200160009054906101000a900473ffffffffffffffffffffffffffffffffffffffff166040518263ffffffff1660e01b815260040161031991906106cf565b602060405180830381865afa158015610336573d6000803e3d6000fd5b505050506040513d601f19601f8201168201806040525081019061035a91906107f9565b6006600082825461036b9190610855565b92505081905550808061037d90610889565b915050610257565b50600654905090565b6001818154811061039e57600080fd5b906000526020600020016000915054906101000a900473ffffffffffffffffffffffffffffffffffffffff1681565b60065481565b600080600090505b60008054905081101561048c578273ffffffffffffffffffffffffffffffffffffffff1660008281548110610413576104126107b5565b5b9060005260206000200160009054906101000a900473ffffffffffffffffffffffffffffffffffffffff1673ffffffffffffffffffffffffffffffffffffffff1603610479576001600760006101000a81548160ff02191690831515021790555061048c565b808061048490610889565b9150506103db565b50600760009054906101000a900460ff169050919050565b60046020528060005260406000206000915054906101000a900473ffffffffffffffffffffffffffffffffffffffff1681565b600760009054906101000a900460ff1681565b60056020528060005260406000206000915054906101000a900473ffffffffffffffffffffffffffffffffffffffff1681565b600360009054906101000a900473ffffffffffffffffffffffffffffffffffffffff1681565b6000818154811061055357600080fd5b906000526020600020016000915054906101000a900473ffffffffffffffffffffffffffffffffffffffff1681565b600073ffffffffffffffffffffffffffffffffffffffff82169050919050565b6000819050919050565b60006105c76105c26105bd84610582565b6105a2565b610582565b9050919050565b60006105d9826105ac565b9050919050565b60006105eb826105ce565b9050919050565b6105fb816105e0565b82525050565b600060208201905061061660008301846105f2565b92915050565b6000819050919050565b61062f8161061c565b82525050565b600060208201905061064a6000830184610626565b92915050565b600080fd5b61065e8161061c565b811461066957600080fd5b50565b60008135905061067b81610655565b92915050565b60006020828403121561069757610696610650565b5b60006106a58482850161066c565b91505092915050565b60006106b982610582565b9050919050565b6106c9816106ae565b82525050565b60006020820190506106e460008301846106c0565b92915050565b6106f3816106ae565b81146106fe57600080fd5b50565b600081359050610710816106ea565b92915050565b60006020828403121561072c5761072b610650565b5b600061073a84828501610701565b91505092915050565b60008115159050919050565b61075881610743565b82525050565b6000602082019050610773600083018461074f565b92915050565b6000610784826105ce565b9050919050565b61079481610779565b82525050565b60006020820190506107af600083018461078b565b92915050565b7f4e487b7100000000000000000000000000000000000000000000000000000000600052603260045260246000fd5b6000815190506107f381610655565b92915050565b60006020828403121561080f5761080e610650565b5b600061081d848285016107e4565b91505092915050565b7f4e487b7100000000000000000000000000000000000000000000000000000000600052601160045260246000fd5b60006108608261061c565b915061086b8361061c565b925082820190508082111561088357610882610826565b5b92915050565b60006108948261061c565b91507fffffffffffffffffffffffffffffffffffffffffffffffffffffffffffffffff82036108c6576108c5610826565b5b60018201905091905056fea26469706673582212204382064692ce391db3665740c0c5f4a9b3697c3858206616c34e1a223f08ba6964736f6c63430008120033608060405234801561001057600080fd5b5033600160006101000a81548173ffffffffffffffffffffffffffffffffffffffff021916908373ffffffffffffffffffffffffffffffffffffffff160217905550611572806100616000396000f3fe608060405234801561001057600080fd5b50600436106100885760003560e01c806369328dec1161005b57806369328dec14610113578063c45a01551461012f578063c4d66de81461014d578063fc0c546a1461016957610088565b806347e7ef241461008d5780634b8a3529146100a95780634be5bd18146100c55780635ceae9c4146100f7575b600080fd5b6100a760048036038101906100a29190610f0c565b610187565b005b6100c360048036038101906100be9190610f0c565b61058c565b005b6100df60048036038101906100da9190610f4c565b6108b7565b6040516100ee93929190610f97565b60405180910390f35b610111600480360381019061010c9190610fce565b610931565b005b61012d60048036038101906101289190610fce565b610a36565b005b610137610d56565b6040516101449190611021565b60405180910390f35b6101676004803603810190610162919061103c565b610d7c565b005b610171610e4f565b60405161017e9190611021565b60405180910390f35b6000600160009054906101000a900473ffffffffffffffffffffffffffffffffffffffff1673ffffffffffffffffffffffffffffffffffffffff166330b9d2a7846040518263ffffffff1660e01b81526004016101e49190611021565b6020604051808303816000875af1158015610203573d6000803e3d6000fd5b505050506040513d601f19601f8201168201806040525081019061022791906110a1565b905080610269576040517f62f75cd70000000000000000000000000000000000000000000000000000000081526004016102609061112b565b60405180910390fd5b6000600360003373ffffffffffffffffffffffffffffffffffffffff1673ffffffffffffffffffffffffffffffffffffffff1681526020019081526020016000205411156103645760006002600360003373ffffffffffffffffffffffffffffffffffffffff1673ffffffffffffffffffffffffffffffffffffffff1681526020019081526020016000205442610300919061117a565b61030a91906111ae565b905080600260003373ffffffffffffffffffffffffffffffffffffffff1673ffffffffffffffffffffffffffffffffffffffff168152602001908152602001600020600082825461035b91906111f0565b92505081905550505b81600260003373ffffffffffffffffffffffffffffffffffffffff1673ffffffffffffffffffffffffffffffffffffffff16815260200190815260200160002060008282546103b391906111f0565b9250508190555042600360003373ffffffffffffffffffffffffffffffffffffffff1673ffffffffffffffffffffffffffffffffffffffff168152602001908152602001600020819055508273ffffffffffffffffffffffffffffffffffffffff166323b872dd3330856040518463ffffffff1660e01b815260040161043b93929190610f97565b6020604051808303816000875af115801561045a573d6000803e3d6000fd5b505050506040513d601f19601f8201168201806040525081019061047e91906110a1565b50600160009054906101000a900473ffffffffffffffffffffffffffffffffffffffff1673ffffffffffffffffffffffffffffffffffffffff16637ae556aa846040518263ffffffff1660e01b81526004016104da9190611021565b602060405180830381865afa1580156104f7573d6000803e3d6000fd5b505050506040513d601f19601f8201168201806040525081019061051b9190611262565b73ffffffffffffffffffffffffffffffffffffffff166340c10f1933846040518363ffffffff1660e01b815260040161055592919061128f565b600060405180830381600087803b15801561056f57600080fd5b505af1158015610583573d6000803e3d6000fd5b50505050505050565b80600260003373ffffffffffffffffffffffffffffffffffffffff1673ffffffffffffffffffffffffffffffffffffffff168152602001908152602001600020541161060d576040517f08c379a000000000000000000000000000000000000000000000000000000000815260040161060490611304565b60405180910390fd5b6000600160009054906101000a900473ffffffffffffffffffffffffffffffffffffffff1673ffffffffffffffffffffffffffffffffffffffff166330b9d2a7846040518263ffffffff1660e01b815260040161066a9190611021565b6020604051808303816000875af1158015610689573d6000803e3d6000fd5b505050506040513d601f19601f820116820180604052508101906106ad91906110a1565b9050806106ef576040517f62f75cd70000000000000000000000000000000000000000000000000000000081526004016106e690611370565b60405180910390fd5b818373ffffffffffffffffffffffffffffffffffffffff166370a08231306040518263ffffffff1660e01b81526004016107299190611021565b602060405180830381865afa158015610746573d6000803e3d6000fd5b505050506040513d601f19601f8201168201806040525081019061076a91906113a5565b10156107ab576040517f08c379a00000000000000000000000000000000000000000000000000000000081526004016107a290611444565b60405180910390fd5b42600560003373ffffffffffffffffffffffffffffffffffffffff1673ffffffffffffffffffffffffffffffffffffffff1681526020019081526020016000208190555081600460003373ffffffffffffffffffffffffffffffffffffffff1673ffffffffffffffffffffffffffffffffffffffff168152602001908152602001600020819055508273ffffffffffffffffffffffffffffffffffffffff1663a9059cbb33846040518363ffffffff1660e01b815260040161086e92919061128f565b6020604051808303816000875af115801561088d573d6000803e3d6000fd5b505050506040513d601f19601f820116820180604052508101906108b191906110a1565b50505050565b600781815481106108c757600080fd5b90600052602060002090600302016000915090508060000160009054906101000a900473ffffffffffffffffffffffffffffffffffffffff16908060010160009054906101000a900473ffffffffffffffffffffffffffffffffffffffff16908060020154905083565b81600460003373ffffffffffffffffffffffffffffffffffffffff1673ffffffffffffffffffffffffffffffffffffffff16815260200190815260200160002054146109b2576040517f08c379a00000000000000000000000000000000000000000000000000000000081526004016109a9906114b0565b60405180910390fd5b8273ffffffffffffffffffffffffffffffffffffffff1663a9059cbb30846040518363ffffffff1660e01b81526004016109ed92919061128f565b6020604051808303816000875af1158015610a0c573d6000803e3d6000fd5b505050506040513d601f19601f82011682018060405250810190610a3091906110a1565b50505050565b6000826002600360003373ffffffffffffffffffffffffffffffffffffffff1673ffffffffffffffffffffffffffffffffffffffff1681526020019081526020016000205442610a86919061117a565b610a9091906111ae565b610a9a91906111f0565b9050600160009054906101000a900473ffffffffffffffffffffffffffffffffffffffff1673ffffffffffffffffffffffffffffffffffffffff16637ae556aa856040518263ffffffff1660e01b8152600401610af79190611021565b602060405180830381865afa158015610b14573d6000803e3d6000fd5b505050506040513d601f19601f82011682018060405250810190610b389190611262565b73ffffffffffffffffffffffffffffffffffffffff16639dc29fac83856040518363ffffffff1660e01b8152600401610b7292919061128f565b600060405180830381600087803b158015610b8c57600080fd5b505af1158015610ba0573d6000803e3d6000fd5b505050508373ffffffffffffffffffffffffffffffffffffffff1663a9059cbb83836040518363ffffffff1660e01b8152600401610bdf92919061128f565b6020604051808303816000875af1158015610bfe573d6000803e3d6000fd5b505050506040513d601f19601f82011682018060405250810190610c2291906110a1565b5082600260003373ffffffffffffffffffffffffffffffffffffffff1673ffffffffffffffffffffffffffffffffffffffff1681526020019081526020016000206000828254610c72919061117a565b925050819055506000600260003373ffffffffffffffffffffffffffffffffffffffff1673ffffffffffffffffffffffffffffffffffffffff1681526020019081526020016000205403610d0a576000600360003373ffffffffffffffffffffffffffffffffffffffff1673ffffffffffffffffffffffffffffffffffffffff16815260200190815260200160002081905550610d50565b6000600360003373ffffffffffffffffffffffffffffffffffffffff1673ffffffffffffffffffffffffffffffffffffffff168152602001908152602001600020819055505b50505050565b600160009054906101000a900473ffffffffffffffffffffffffffffffffffffffff1681565b600160009054906101000a900473ffffffffffffffffffffffffffffffffffffffff1673ffffffffffffffffffffffffffffffffffffffff163373ffffffffffffffffffffffffffffffffffffffff1614610e0c576040517f08c379a0000000000000000000000000000000000000000000000000000000008152600401610e039061151c565b60405180910390fd5b806000806101000a81548173ffffffffffffffffffffffffffffffffffffffff021916908373ffffffffffffffffffffffffffffffffffffffff16021790555050565b60008054906101000a900473ffffffffffffffffffffffffffffffffffffffff1681565b600080fd5b600073ffffffffffffffffffffffffffffffffffffffff82169050919050565b6000610ea382610e78565b9050919050565b610eb381610e98565b8114610ebe57600080fd5b50565b600081359050610ed081610eaa565b92915050565b6000819050919050565b610ee981610ed6565b8114610ef457600080fd5b50565b600081359050610f0681610ee0565b92915050565b60008060408385031215610f2357610f22610e73565b5b6000610f3185828601610ec1565b9250506020610f4285828601610ef7565b9150509250929050565b600060208284031215610f6257610f61610e73565b5b6000610f7084828501610ef7565b91505092915050565b610f8281610e98565b82525050565b610f9181610ed6565b82525050565b6000606082019050610fac6000830186610f79565b610fb96020830185610f79565b610fc66040830184610f88565b949350505050565b600080600060608486031215610fe757610fe6610e73565b5b6000610ff586828701610ec1565b935050602061100686828701610ef7565b925050604061101786828701610ec1565b9150509250925092565b60006020820190506110366000830184610f79565b92915050565b60006020828403121561105257611051610e73565b5b600061106084828501610ec1565b91505092915050565b60008115159050919050565b61107e81611069565b811461108957600080fd5b50565b60008151905061109b81611075565b92915050565b6000602082840312156110b7576110b6610e73565b5b60006110c58482850161108c565b91505092915050565b600082825260208201905092915050565b7f596f7520617265206465706f736974696e672077726f6e6720746f6b656e2100600082015250565b6000611115601f836110ce565b9150611120826110df565b602082019050919050565b6000602082019050818103600083015261114481611108565b9050919050565b7f4e487b7100000000000000000000000000000000000000000000000000000000600052601160045260246000fd5b600061118582610ed6565b915061119083610ed6565b92508282039050818111156111a8576111a761114b565b5b92915050565b60006111b982610ed6565b91506111c483610ed6565b92508282026111d281610ed6565b915082820484148315176111e9576111e861114b565b5b5092915050565b60006111fb82610ed6565b915061120683610ed6565b925082820190508082111561121e5761121d61114b565b5b92915050565b600061122f82610e98565b9050919050565b61123f81611224565b811461124a57600080fd5b50565b60008151905061125c81611236565b92915050565b60006020828403121561127857611277610e73565b5b60006112868482850161124d565b91505092915050565b60006040820190506112a46000830185610f79565b6112b16020830184610f88565b9392505050565b7f596f7520646f6e2774206861766520656e6f75676820616d6f756e7421000000600082015250565b60006112ee601d836110ce565b91506112f9826112b8565b602082019050919050565b6000602082019050818103600083015261131d816112e1565b9050919050565b7f596f752061726520626f72726f77696e672077726f6e6720746f6b656e210000600082015250565b600061135a601e836110ce565b915061136582611324565b602082019050919050565b600060208201905081810360008301526113898161134d565b9050919050565b60008151905061139f81610ee0565b92915050565b6000602082840312156113bb576113ba610e73565b5b60006113c984828501611390565b91505092915050565b7f706f6f6c20646f65736e2774206861766520656e6f75676820746f6b656e732060008201527f746f20626f72726f772100000000000000000000000000000000000000000000602082015250565b600061142e602a836110ce565b9150611439826113d2565b604082019050919050565b6000602082019050818103600083015261145d81611421565b9050919050565b7f796f7520646f6e27742068617665206465627421000000000000000000000000600082015250565b600061149a6014836110ce565b91506114a582611464565b602082019050919050565b600060208201905081810360008301526114c98161148d565b9050919050565b7f44696e616e636520466f7262696464656e210000000000000000000000000000600082015250565b60006115066012836110ce565b9150611511826114d0565b602082019050919050565b60006020820190508181036000830152611535816114f9565b905091905056fea2646970667358221220cd3cac7cec31b04b79082778f0ff21c221854e1e585c4d33b7f26458fd68f47f64736f6c6343000812003360806040523480156200001157600080fd5b5060405162001e6238038062001e628339818101604052810190620000379190620002a1565b818181600390816200004a919062000586565b5080600490816200005c919062000586565b50505082600560006101000a81548173ffffffffffffffffffffffffffffffffffffffff021916908373ffffffffffffffffffffffffffffffffffffffff1602179055505050506200066d565b6000604051905090565b600080fd5b600080fd5b600073ffffffffffffffffffffffffffffffffffffffff82169050919050565b6000620000ea82620000bd565b9050919050565b620000fc81620000dd565b81146200010857600080fd5b50565b6000815190506200011c81620000f1565b92915050565b600080fd5b600080fd5b6000601f19601f8301169050919050565b7f4e487b7100000000000000000000000000000000000000000000000000000000600052604160045260246000fd5b62000177826200012c565b810181811067ffffffffffffffff821117156200019957620001986200013d565b5b80604052505050565b6000620001ae620000a9565b9050620001bc82826200016c565b919050565b600067ffffffffffffffff821115620001df57620001de6200013d565b5b620001ea826200012c565b9050602081019050919050565b60005b8381101562000217578082015181840152602081019050620001fa565b60008484015250505050565b60006200023a6200023484620001c1565b620001a2565b90508281526020810184848401111562000259576200025862000127565b5b62000266848285620001f7565b509392505050565b600082601f83011262000286576200028562000122565b5b81516200029884826020860162000223565b91505092915050565b600080600060608486031215620002bd57620002bc620000b3565b5b6000620002cd868287016200010b565b935050602084015167ffffffffffffffff811115620002f157620002f0620000b8565b5b620002ff868287016200026e565b925050604084015167ffffffffffffffff811115620003235762000322620000b8565b5b62000331868287016200026e565b9150509250925092565b600081519050919050565b7f4e487b7100000000000000000000000000000000000000000000000000000000600052602260045260246000fd5b600060028204905060018216806200038e57607f821691505b602082108103620003a457620003a362000346565b5b50919050565b60008190508160005260206000209050919050565b60006020601f8301049050919050565b600082821b905092915050565b6000600883026200040e7fffffffffffffffffffffffffffffffffffffffffffffffffffffffffffffffff82620003cf565b6200041a8683620003cf565b95508019841693508086168417925050509392505050565b6000819050919050565b6000819050919050565b600062000467620004616200045b8462000432565b6200043c565b62000432565b9050919050565b6000819050919050565b620004838362000446565b6200049b62000492826200046e565b848454620003dc565b825550505050565b600090565b620004b2620004a3565b620004bf81848462000478565b505050565b5b81811015620004e757620004db600082620004a8565b600181019050620004c5565b5050565b601f82111562000536576200050081620003aa565b6200050b84620003bf565b810160208510156200051b578190505b620005336200052a85620003bf565b830182620004c4565b50505b505050565b600082821c905092915050565b60006200055b600019846008026200053b565b1980831691505092915050565b600062000576838362000548565b9150826002028217905092915050565b62000591826200033b565b67ffffffffffffffff811115620005ad57620005ac6200013d565b5b620005b9825462000375565b620005c6828285620004eb565b600060209050601f831160018114620005fe5760008415620005e9578287015190505b620005f5858262000568565b86555062000665565b601f1984166200060e86620003aa565b60005b82811015620006385784890151825560018201915060208501945060208101905062000611565b8683101562000658578489015162000654601f89168262000548565b8355505b6001600288020188555050505b505050505050565b6117e5806200067d6000396000f3fe608060405234801561001057600080fd5b50600436106100ea5760003560e01c806340c10f191161008c5780639dc29fac116100665780639dc29fac14610261578063a457c2d71461027d578063a9059cbb146102ad578063dd62ed3e146102dd576100ea565b806340c10f19146101f757806370a082311461021357806395d89b4114610243576100ea565b80632140ea67116100c85780632140ea671461015b57806323b872dd14610179578063313ce567146101a957806339509351146101c7576100ea565b806306fdde03146100ef578063095ea7b31461010d57806318160ddd1461013d575b600080fd5b6100f761030d565b6040516101049190610f08565b60405180910390f35b61012760048036038101906101229190610fc3565b61039f565b604051610134919061101e565b60405180910390f35b6101456103c2565b6040516101529190611048565b60405180910390f35b6101636103cc565b6040516101709190611072565b60405180910390f35b610193600480360381019061018e919061108d565b6103f2565b6040516101a0919061101e565b60405180910390f35b6101b1610421565b6040516101be91906110fc565b60405180910390f35b6101e160048036038101906101dc9190610fc3565b61042a565b6040516101ee919061101e565b60405180910390f35b610211600480360381019061020c9190610fc3565b610461565b005b61022d60048036038101906102289190611117565b61046f565b60405161023a9190611048565b60405180910390f35b61024b6104b7565b6040516102589190610f08565b60405180910390f35b61027b60048036038101906102769190610fc3565b610549565b005b61029760048036038101906102929190610fc3565b610557565b6040516102a4919061101e565b60405180910390f35b6102c760048036038101906102c29190610fc3565b6105ce565b6040516102d4919061101e565b60405180910390f35b6102f760048036038101906102f29190611144565b6105f1565b6040516103049190611048565b60405180910390f35b60606003805461031c906111b3565b80601f0160208091040260200160405190810160405280929190818152602001828054610348906111b3565b80156103955780601f1061036a57610100808354040283529160200191610395565b820191906000526020600020905b81548152906001019060200180831161037857829003601f168201915b5050505050905090565b6000806103aa610678565b90506103b7818585610680565b600191505092915050565b6000600254905090565b600560009054906101000a900473ffffffffffffffffffffffffffffffffffffffff1681565b6000806103fd610678565b905061040a858285610849565b6104158585856108d5565b60019150509392505050565b60006012905090565b600080610435610678565b905061045681858561044785896105f1565b6104519190611213565b610680565b600191505092915050565b61046b8282610b4b565b5050565b60008060008373ffffffffffffffffffffffffffffffffffffffff1673ffffffffffffffffffffffffffffffffffffffff168152602001908152602001600020549050919050565b6060600480546104c6906111b3565b80601f01602080910402602001604051908101604052809291908181526020018280546104f2906111b3565b801561053f5780601f106105145761010080835404028352916020019161053f565b820191906000526020600020905b81548152906001019060200180831161052257829003601f168201915b5050505050905090565b6105538282610ca1565b5050565b600080610562610678565b9050600061057082866105f1565b9050838110156105b5576040517f08c379a00000000000000000000000000000000000000000000000000000000081526004016105ac906112b9565b60405180910390fd5b6105c28286868403610680565b60019250505092915050565b6000806105d9610678565b90506105e68185856108d5565b600191505092915050565b6000600160008473ffffffffffffffffffffffffffffffffffffffff1673ffffffffffffffffffffffffffffffffffffffff16815260200190815260200160002060008373ffffffffffffffffffffffffffffffffffffffff1673ffffffffffffffffffffffffffffffffffffffff16815260200190815260200160002054905092915050565b600033905090565b600073ffffffffffffffffffffffffffffffffffffffff168373ffffffffffffffffffffffffffffffffffffffff16036106ef576040517f08c379a00000000000000000000000000000000000000000000000000000000081526004016106e69061134b565b60405180910390fd5b600073ffffffffffffffffffffffffffffffffffffffff168273ffffffffffffffffffffffffffffffffffffffff160361075e576040517f08c379a0000000000000000000000000000000000000000000000000000000008152600401610755906113dd565b60405180910390fd5b80600160008573ffffffffffffffffffffffffffffffffffffffff1673ffffffffffffffffffffffffffffffffffffffff16815260200190815260200160002060008473ffffffffffffffffffffffffffffffffffffffff1673ffffffffffffffffffffffffffffffffffffffff168152602001908152602001600020819055508173ffffffffffffffffffffffffffffffffffffffff168373ffffffffffffffffffffffffffffffffffffffff167f8c5be1e5ebec7d5bd14f71427d1e84f3dd0314c0f7b2291e5b200ac8c7c3b9258360405161083c9190611048565b60405180910390a3505050565b600061085584846105f1565b90507fffffffffffffffffffffffffffffffffffffffffffffffffffffffffffffffff81146108cf57818110156108c1576040517f08c379a00000000000000000000000000000000000000000000000000000000081526004016108b890611449565b60405180910390fd5b6108ce8484848403610680565b5b50505050565b600073ffffffffffffffffffffffffffffffffffffffff168373ffffffffffffffffffffffffffffffffffffffff1603610944576040517f08c379a000000000000000000000000000000000000000000000000000000000815260040161093b906114db565b60405180910390fd5b600073ffffffffffffffffffffffffffffffffffffffff168273ffffffffffffffffffffffffffffffffffffffff16036109b3576040517f08c379a00000000000000000000000000000000000000000000000000000000081526004016109aa9061156d565b60405180910390fd5b6109be838383610e6e565b60008060008573ffffffffffffffffffffffffffffffffffffffff1673ffffffffffffffffffffffffffffffffffffffff16815260200190815260200160002054905081811015610a44576040517f08c379a0000000000000000000000000000000000000000000000000000000008152600401610a3b906115ff565b60405180910390fd5b8181036000808673ffffffffffffffffffffffffffffffffffffffff1673ffffffffffffffffffffffffffffffffffffffff16815260200190815260200160002081905550816000808573ffffffffffffffffffffffffffffffffffffffff1673ffffffffffffffffffffffffffffffffffffffff168152602001908152602001600020600082825401925050819055508273ffffffffffffffffffffffffffffffffffffffff168473ffffffffffffffffffffffffffffffffffffffff167fddf252ad1be2c89b69c2b068fc378daa952ba7f163c4a11628f55a4df523b3ef84604051610b329190611048565b60405180910390a3610b45848484610e73565b50505050565b600073ffffffffffffffffffffffffffffffffffffffff168273ffffffffffffffffffffffffffffffffffffffff1603610bba576040517f08c379a0000000000000000000000000000000000000000000000000000000008152600401610bb19061166b565b60405180910390fd5b610bc660008383610e6e565b8060026000828254610bd89190611213565b92505081905550806000808473ffffffffffffffffffffffffffffffffffffffff1673ffffffffffffffffffffffffffffffffffffffff168152602001908152602001600020600082825401925050819055508173ffffffffffffffffffffffffffffffffffffffff16600073ffffffffffffffffffffffffffffffffffffffff167fddf252ad1be2c89b69c2b068fc378daa952ba7f163c4a11628f55a4df523b3ef83604051610c899190611048565b60405180910390a3610c9d60008383610e73565b5050565b600073ffffffffffffffffffffffffffffffffffffffff168273ffffffffffffffffffffffffffffffffffffffff1603610d10576040517f08c379a0000000000000000000000000000000000000000000000000000000008152600401610d07906116fd565b60405180910390fd5b610d1c82600083610e6e565b60008060008473ffffffffffffffffffffffffffffffffffffffff1673ffffffffffffffffffffffffffffffffffffffff16815260200190815260200160002054905081811015610da2576040517f08c379a0000000000000000000000000000000000000000000000000000000008152600401610d999061178f565b60405180910390fd5b8181036000808573ffffffffffffffffffffffffffffffffffffffff1673ffffffffffffffffffffffffffffffffffffffff1681526020019081526020016000208190555081600260008282540392505081905550600073ffffffffffffffffffffffffffffffffffffffff168373ffffffffffffffffffffffffffffffffffffffff167fddf252ad1be2c89b69c2b068fc378daa952ba7f163c4a11628f55a4df523b3ef84604051610e559190611048565b60405180910390a3610e6983600084610e73565b505050565b505050565b505050565b600081519050919050565b600082825260208201905092915050565b60005b83811015610eb2578082015181840152602081019050610e97565b60008484015250505050565b6000601f19601f8301169050919050565b6000610eda82610e78565b610ee48185610e83565b9350610ef4818560208601610e94565b610efd81610ebe565b840191505092915050565b60006020820190508181036000830152610f228184610ecf565b905092915050565b600080fd5b600073ffffffffffffffffffffffffffffffffffffffff82169050919050565b6000610f5a82610f2f565b9050919050565b610f6a81610f4f565b8114610f7557600080fd5b50565b600081359050610f8781610f61565b92915050565b6000819050919050565b610fa081610f8d565b8114610fab57600080fd5b50565b600081359050610fbd81610f97565b92915050565b60008060408385031215610fda57610fd9610f2a565b5b6000610fe885828601610f78565b9250506020610ff985828601610fae565b9150509250929050565b60008115159050919050565b61101881611003565b82525050565b6000602082019050611033600083018461100f565b92915050565b61104281610f8d565b82525050565b600060208201905061105d6000830184611039565b92915050565b61106c81610f4f565b82525050565b60006020820190506110876000830184611063565b92915050565b6000806000606084860312156110a6576110a5610f2a565b5b60006110b486828701610f78565b93505060206110c586828701610f78565b92505060406110d686828701610fae565b9150509250925092565b600060ff82169050919050565b6110f6816110e0565b82525050565b600060208201905061111160008301846110ed565b92915050565b60006020828403121561112d5761112c610f2a565b5b600061113b84828501610f78565b91505092915050565b6000806040838503121561115b5761115a610f2a565b5b600061116985828601610f78565b925050602061117a85828601610f78565b9150509250929050565b7f4e487b7100000000000000000000000000000000000000000000000000000000600052602260045260246000fd5b600060028204905060018216806111cb57607f821691505b6020821081036111de576111dd611184565b5b50919050565b7f4e487b7100000000000000000000000000000000000000000000000000000000600052601160045260246000fd5b600061121e82610f8d565b915061122983610f8d565b9250828201905080821115611241576112406111e4565b5b92915050565b7f45524332303a2064656372656173656420616c6c6f77616e63652062656c6f7760008201527f207a65726f000000000000000000000000000000000000000000000000000000602082015250565b60006112a3602583610e83565b91506112ae82611247565b604082019050919050565b600060208201905081810360008301526112d281611296565b9050919050565b7f45524332303a20617070726f76652066726f6d20746865207a65726f2061646460008201527f7265737300000000000000000000000000000000000000000000000000000000602082015250565b6000611335602483610e83565b9150611340826112d9565b604082019050919050565b6000602082019050818103600083015261136481611328565b9050919050565b7f45524332303a20617070726f766520746f20746865207a65726f20616464726560008201527f7373000000000000000000000000000000000000000000000000000000000000602082015250565b60006113c7602283610e83565b91506113d28261136b565b604082019050919050565b600060208201905081810360008301526113f6816113ba565b9050919050565b7f45524332303a20696e73756666696369656e7420616c6c6f77616e6365000000600082015250565b6000611433601d83610e83565b915061143e826113fd565b602082019050919050565b6000602082019050818103600083015261146281611426565b9050919050565b7f45524332303a207472616e736665722066726f6d20746865207a65726f20616460008201527f6472657373000000000000000000000000000000000000000000000000000000602082015250565b60006114c5602583610e83565b91506114d082611469565b604082019050919050565b600060208201905081810360008301526114f4816114b8565b9050919050565b7f45524332303a207472616e7366657220746f20746865207a65726f206164647260008201527f6573730000000000000000000000000000000000000000000000000000000000602082015250565b6000611557602383610e83565b9150611562826114fb565b604082019050919050565b600060208201905081810360008301526115868161154a565b9050919050565b7f45524332303a207472616e7366657220616d6f756e742065786365656473206260008201527f616c616e63650000000000000000000000000000000000000000000000000000602082015250565b60006115e9602683610e83565b91506115f48261158d565b604082019050919050565b60006020820190508181036000830152611618816115dc565b9050919050565b7f45524332303a206d696e7420746f20746865207a65726f206164647265737300600082015250565b6000611655601f83610e83565b91506116608261161f565b602082019050919050565b6000602082019050818103600083015261168481611648565b9050919050565b7f45524332303a206275726e2066726f6d20746865207a65726f2061646472657360008201527f7300000000000000000000000000000000000000000000000000000000000000602082015250565b60006116e7602183610e83565b91506116f28261168b565b604082019050919050565b60006020820190508181036000830152611716816116da565b9050919050565b7f45524332303a206275726e20616d6f756e7420657863656564732062616c616e60008201527f6365000000000000000000000000000000000000000000000000000000000000602082015250565b6000611779602283610e83565b91506117848261171d565b604082019050919050565b600060208201905081810360008301526117a88161176c565b905091905056fea264697066735822122007c0373d9d319e45bd08e1088e658fe6779c05a251e3cf3b3d2f75788179535f64736f6c63430008120033",
    "linkReferences": {},
    "deployedLinkReferences": {}
}