{
    "_format": "hh-sol-artifact-1",
    "contractName": "DinancePool",
    "sourceName": "contracts/DinancePool.sol",
    "abi": [
        {
            "inputs": [],
            "stateMutability": "nonpayable",
            "type": "constructor"
        },
        {
            "inputs": [
                {
                    "internalType": "string",
                    "name": "message",
                    "type": "string"
                }
            ],
            "name": "PoolDoesntExist",
            "type": "error"
        },
        {
            "inputs": [
                {
                    "internalType": "address",
                    "name": "_token",
                    "type": "address"
                },
                {
                    "internalType": "uint256",
                    "name": "_amount",
                    "type": "uint256"
                }
            ],
            "name": "borrow",
            "outputs": [],
            "stateMutability": "nonpayable",
            "type": "function"
        },
        {
            "inputs": [
                {
                    "internalType": "address",
                    "name": "_token",
                    "type": "address"
                },
                {
                    "internalType": "uint256",
                    "name": "_amount",
                    "type": "uint256"
                }
            ],
            "name": "deposit",
            "outputs": [],
            "stateMutability": "nonpayable",
            "type": "function"
        },
        {
            "inputs": [
                {
                    "internalType": "uint256",
                    "name": "",
                    "type": "uint256"
                }
            ],
            "name": "depositedData",
            "outputs": [
                {
                    "internalType": "address",
                    "name": "sender",
                    "type": "address"
                },
                {
                    "internalType": "address",
                    "name": "token",
                    "type": "address"
                },
                {
                    "internalType": "uint256",
                    "name": "amount",
                    "type": "uint256"
                }
            ],
            "stateMutability": "view",
            "type": "function"
        },
        {
            "inputs": [],
            "name": "factory",
            "outputs": [
                {
                    "internalType": "address",
                    "name": "",
                    "type": "address"
                }
            ],
            "stateMutability": "view",
            "type": "function"
        },
        {
            "inputs": [
                {
                    "internalType": "address",
                    "name": "_token",
                    "type": "address"
                }
            ],
            "name": "initialize",
            "outputs": [],
            "stateMutability": "nonpayable",
            "type": "function"
        },
        {
            "inputs": [
                {
                    "internalType": "address",
                    "name": "_token",
                    "type": "address"
                },
                {
                    "internalType": "uint256",
                    "name": "_amount",
                    "type": "uint256"
                },
                {
                    "internalType": "address",
                    "name": "_account",
                    "type": "address"
                }
            ],
            "name": "repay",
            "outputs": [],
            "stateMutability": "nonpayable",
            "type": "function"
        },
        {
            "inputs": [],
            "name": "token",
            "outputs": [
                {
                    "internalType": "address",
                    "name": "",
                    "type": "address"
                }
            ],
            "stateMutability": "view",
            "type": "function"
        },
        {
            "inputs": [
                {
                    "internalType": "address",
                    "name": "_token",
                    "type": "address"
                },
                {
                    "internalType": "uint256",
                    "name": "_amount",
                    "type": "uint256"
                },
                {
                    "internalType": "address",
                    "name": "to",
                    "type": "address"
                }
            ],
            "name": "withdraw",
            "outputs": [],
            "stateMutability": "nonpayable",
            "type": "function"
        }
    ],
    "bytecode": "0x608060405234801561001057600080fd5b5033600160006101000a81548173ffffffffffffffffffffffffffffffffffffffff021916908373ffffffffffffffffffffffffffffffffffffffff160217905550611572806100616000396000f3fe608060405234801561001057600080fd5b50600436106100885760003560e01c806369328dec1161005b57806369328dec14610113578063c45a01551461012f578063c4d66de81461014d578063fc0c546a1461016957610088565b806347e7ef241461008d5780634b8a3529146100a95780634be5bd18146100c55780635ceae9c4146100f7575b600080fd5b6100a760048036038101906100a29190610f0c565b610187565b005b6100c360048036038101906100be9190610f0c565b61058c565b005b6100df60048036038101906100da9190610f4c565b6108b7565b6040516100ee93929190610f97565b60405180910390f35b610111600480360381019061010c9190610fce565b610931565b005b61012d60048036038101906101289190610fce565b610a36565b005b610137610d56565b6040516101449190611021565b60405180910390f35b6101676004803603810190610162919061103c565b610d7c565b005b610171610e4f565b60405161017e9190611021565b60405180910390f35b6000600160009054906101000a900473ffffffffffffffffffffffffffffffffffffffff1673ffffffffffffffffffffffffffffffffffffffff166330b9d2a7846040518263ffffffff1660e01b81526004016101e49190611021565b6020604051808303816000875af1158015610203573d6000803e3d6000fd5b505050506040513d601f19601f8201168201806040525081019061022791906110a1565b905080610269576040517f62f75cd70000000000000000000000000000000000000000000000000000000081526004016102609061112b565b60405180910390fd5b6000600360003373ffffffffffffffffffffffffffffffffffffffff1673ffffffffffffffffffffffffffffffffffffffff1681526020019081526020016000205411156103645760006002600360003373ffffffffffffffffffffffffffffffffffffffff1673ffffffffffffffffffffffffffffffffffffffff1681526020019081526020016000205442610300919061117a565b61030a91906111ae565b905080600260003373ffffffffffffffffffffffffffffffffffffffff1673ffffffffffffffffffffffffffffffffffffffff168152602001908152602001600020600082825461035b91906111f0565b92505081905550505b81600260003373ffffffffffffffffffffffffffffffffffffffff1673ffffffffffffffffffffffffffffffffffffffff16815260200190815260200160002060008282546103b391906111f0565b9250508190555042600360003373ffffffffffffffffffffffffffffffffffffffff1673ffffffffffffffffffffffffffffffffffffffff168152602001908152602001600020819055508273ffffffffffffffffffffffffffffffffffffffff166323b872dd3330856040518463ffffffff1660e01b815260040161043b93929190610f97565b6020604051808303816000875af115801561045a573d6000803e3d6000fd5b505050506040513d601f19601f8201168201806040525081019061047e91906110a1565b50600160009054906101000a900473ffffffffffffffffffffffffffffffffffffffff1673ffffffffffffffffffffffffffffffffffffffff16637ae556aa846040518263ffffffff1660e01b81526004016104da9190611021565b602060405180830381865afa1580156104f7573d6000803e3d6000fd5b505050506040513d601f19601f8201168201806040525081019061051b9190611262565b73ffffffffffffffffffffffffffffffffffffffff166340c10f1933846040518363ffffffff1660e01b815260040161055592919061128f565b600060405180830381600087803b15801561056f57600080fd5b505af1158015610583573d6000803e3d6000fd5b50505050505050565b80600260003373ffffffffffffffffffffffffffffffffffffffff1673ffffffffffffffffffffffffffffffffffffffff168152602001908152602001600020541161060d576040517f08c379a000000000000000000000000000000000000000000000000000000000815260040161060490611304565b60405180910390fd5b6000600160009054906101000a900473ffffffffffffffffffffffffffffffffffffffff1673ffffffffffffffffffffffffffffffffffffffff166330b9d2a7846040518263ffffffff1660e01b815260040161066a9190611021565b6020604051808303816000875af1158015610689573d6000803e3d6000fd5b505050506040513d601f19601f820116820180604052508101906106ad91906110a1565b9050806106ef576040517f62f75cd70000000000000000000000000000000000000000000000000000000081526004016106e690611370565b60405180910390fd5b818373ffffffffffffffffffffffffffffffffffffffff166370a08231306040518263ffffffff1660e01b81526004016107299190611021565b602060405180830381865afa158015610746573d6000803e3d6000fd5b505050506040513d601f19601f8201168201806040525081019061076a91906113a5565b10156107ab576040517f08c379a00000000000000000000000000000000000000000000000000000000081526004016107a290611444565b60405180910390fd5b42600560003373ffffffffffffffffffffffffffffffffffffffff1673ffffffffffffffffffffffffffffffffffffffff1681526020019081526020016000208190555081600460003373ffffffffffffffffffffffffffffffffffffffff1673ffffffffffffffffffffffffffffffffffffffff168152602001908152602001600020819055508273ffffffffffffffffffffffffffffffffffffffff1663a9059cbb33846040518363ffffffff1660e01b815260040161086e92919061128f565b6020604051808303816000875af115801561088d573d6000803e3d6000fd5b505050506040513d601f19601f820116820180604052508101906108b191906110a1565b50505050565b600781815481106108c757600080fd5b90600052602060002090600302016000915090508060000160009054906101000a900473ffffffffffffffffffffffffffffffffffffffff16908060010160009054906101000a900473ffffffffffffffffffffffffffffffffffffffff16908060020154905083565b81600460003373ffffffffffffffffffffffffffffffffffffffff1673ffffffffffffffffffffffffffffffffffffffff16815260200190815260200160002054146109b2576040517f08c379a00000000000000000000000000000000000000000000000000000000081526004016109a9906114b0565b60405180910390fd5b8273ffffffffffffffffffffffffffffffffffffffff1663a9059cbb30846040518363ffffffff1660e01b81526004016109ed92919061128f565b6020604051808303816000875af1158015610a0c573d6000803e3d6000fd5b505050506040513d601f19601f82011682018060405250810190610a3091906110a1565b50505050565b6000826002600360003373ffffffffffffffffffffffffffffffffffffffff1673ffffffffffffffffffffffffffffffffffffffff1681526020019081526020016000205442610a86919061117a565b610a9091906111ae565b610a9a91906111f0565b9050600160009054906101000a900473ffffffffffffffffffffffffffffffffffffffff1673ffffffffffffffffffffffffffffffffffffffff16637ae556aa856040518263ffffffff1660e01b8152600401610af79190611021565b602060405180830381865afa158015610b14573d6000803e3d6000fd5b505050506040513d601f19601f82011682018060405250810190610b389190611262565b73ffffffffffffffffffffffffffffffffffffffff16639dc29fac83856040518363ffffffff1660e01b8152600401610b7292919061128f565b600060405180830381600087803b158015610b8c57600080fd5b505af1158015610ba0573d6000803e3d6000fd5b505050508373ffffffffffffffffffffffffffffffffffffffff1663a9059cbb83836040518363ffffffff1660e01b8152600401610bdf92919061128f565b6020604051808303816000875af1158015610bfe573d6000803e3d6000fd5b505050506040513d601f19601f82011682018060405250810190610c2291906110a1565b5082600260003373ffffffffffffffffffffffffffffffffffffffff1673ffffffffffffffffffffffffffffffffffffffff1681526020019081526020016000206000828254610c72919061117a565b925050819055506000600260003373ffffffffffffffffffffffffffffffffffffffff1673ffffffffffffffffffffffffffffffffffffffff1681526020019081526020016000205403610d0a576000600360003373ffffffffffffffffffffffffffffffffffffffff1673ffffffffffffffffffffffffffffffffffffffff16815260200190815260200160002081905550610d50565b6000600360003373ffffffffffffffffffffffffffffffffffffffff1673ffffffffffffffffffffffffffffffffffffffff168152602001908152602001600020819055505b50505050565b600160009054906101000a900473ffffffffffffffffffffffffffffffffffffffff1681565b600160009054906101000a900473ffffffffffffffffffffffffffffffffffffffff1673ffffffffffffffffffffffffffffffffffffffff163373ffffffffffffffffffffffffffffffffffffffff1614610e0c576040517f08c379a0000000000000000000000000000000000000000000000000000000008152600401610e039061151c565b60405180910390fd5b806000806101000a81548173ffffffffffffffffffffffffffffffffffffffff021916908373ffffffffffffffffffffffffffffffffffffffff16021790555050565b60008054906101000a900473ffffffffffffffffffffffffffffffffffffffff1681565b600080fd5b600073ffffffffffffffffffffffffffffffffffffffff82169050919050565b6000610ea382610e78565b9050919050565b610eb381610e98565b8114610ebe57600080fd5b50565b600081359050610ed081610eaa565b92915050565b6000819050919050565b610ee981610ed6565b8114610ef457600080fd5b50565b600081359050610f0681610ee0565b92915050565b60008060408385031215610f2357610f22610e73565b5b6000610f3185828601610ec1565b9250506020610f4285828601610ef7565b9150509250929050565b600060208284031215610f6257610f61610e73565b5b6000610f7084828501610ef7565b91505092915050565b610f8281610e98565b82525050565b610f9181610ed6565b82525050565b6000606082019050610fac6000830186610f79565b610fb96020830185610f79565b610fc66040830184610f88565b949350505050565b600080600060608486031215610fe757610fe6610e73565b5b6000610ff586828701610ec1565b935050602061100686828701610ef7565b925050604061101786828701610ec1565b9150509250925092565b60006020820190506110366000830184610f79565b92915050565b60006020828403121561105257611051610e73565b5b600061106084828501610ec1565b91505092915050565b60008115159050919050565b61107e81611069565b811461108957600080fd5b50565b60008151905061109b81611075565b92915050565b6000602082840312156110b7576110b6610e73565b5b60006110c58482850161108c565b91505092915050565b600082825260208201905092915050565b7f596f7520617265206465706f736974696e672077726f6e6720746f6b656e2100600082015250565b6000611115601f836110ce565b9150611120826110df565b602082019050919050565b6000602082019050818103600083015261114481611108565b9050919050565b7f4e487b7100000000000000000000000000000000000000000000000000000000600052601160045260246000fd5b600061118582610ed6565b915061119083610ed6565b92508282039050818111156111a8576111a761114b565b5b92915050565b60006111b982610ed6565b91506111c483610ed6565b92508282026111d281610ed6565b915082820484148315176111e9576111e861114b565b5b5092915050565b60006111fb82610ed6565b915061120683610ed6565b925082820190508082111561121e5761121d61114b565b5b92915050565b600061122f82610e98565b9050919050565b61123f81611224565b811461124a57600080fd5b50565b60008151905061125c81611236565b92915050565b60006020828403121561127857611277610e73565b5b60006112868482850161124d565b91505092915050565b60006040820190506112a46000830185610f79565b6112b16020830184610f88565b9392505050565b7f596f7520646f6e2774206861766520656e6f75676820616d6f756e7421000000600082015250565b60006112ee601d836110ce565b91506112f9826112b8565b602082019050919050565b6000602082019050818103600083015261131d816112e1565b9050919050565b7f596f752061726520626f72726f77696e672077726f6e6720746f6b656e210000600082015250565b600061135a601e836110ce565b915061136582611324565b602082019050919050565b600060208201905081810360008301526113898161134d565b9050919050565b60008151905061139f81610ee0565b92915050565b6000602082840312156113bb576113ba610e73565b5b60006113c984828501611390565b91505092915050565b7f706f6f6c20646f65736e2774206861766520656e6f75676820746f6b656e732060008201527f746f20626f72726f772100000000000000000000000000000000000000000000602082015250565b600061142e602a836110ce565b9150611439826113d2565b604082019050919050565b6000602082019050818103600083015261145d81611421565b9050919050565b7f796f7520646f6e27742068617665206465627421000000000000000000000000600082015250565b600061149a6014836110ce565b91506114a582611464565b602082019050919050565b600060208201905081810360008301526114c98161148d565b9050919050565b7f44696e616e636520466f7262696464656e210000000000000000000000000000600082015250565b60006115066012836110ce565b9150611511826114d0565b602082019050919050565b60006020820190508181036000830152611535816114f9565b905091905056fea2646970667358221220cd3cac7cec31b04b79082778f0ff21c221854e1e585c4d33b7f26458fd68f47f64736f6c63430008120033",
    "linkReferences": {},
    "deployedLinkReferences": {}
}